:0400000090EF06F087
:1008000000696E677265736120756E61206C657436
:100810007261207061726120766572207375206349
:100820006F6D62696E616369F36E20656E2041537E
:100830004349492E2E2E00496E672E20477573744A
:1008400061766F204461766964204D656E646F7ACD
:10085000612050696E746F200A00256400256600CF
:010860000097
:10086200046E948E949CAC9CAC8AAC96AC82AB8E9B
:10087200AB9CAB88AB96AB94AB92D1EF05F0AC9846
:10088200AC94B89EB896000EB06E190EAF6EEEEF35
:1008920005F0AC98AC84B89EB89644EF04F0AC98DE
:1008A200AC84B89EB896000EB06E0C0EAF6EEEEF32
:1008B20005F0AC98AC84B89EB886000EB06E100EEF
:1008C200AF6EEEEF05F0AC98AC84B89EB886000E21
:1008D200B06E080EAF6EEEEF05F0AC98AC84B89E29
:1008E200B89644EF04F00150026E036A0350000A06
:1008F200D8B47EEF04F06EEF04F00250000AD8B4D0
:1009020040EF04F0010AD8B44AEF04F0030AD8B465
:1009120050EF04F0010AD8B45AEF04F0070AD8B431
:1009220064EF04F06EEF04F0AC98AC84B89EB88625
:10093200030EB06E400EAF6EEEEF05F0AC98AC84D5
:10094200B89EB896000EB06E330EAF6EEEEF05F0A5
:10095200AC98AC84B89EB89644EF04F0AC98AC84E2
:10096200B89EB886000EB06E220EAF6EEEEF05F0A6
:10097200AC98AC84B89EB886B3EF04F0AC98AC8463
:10098200B89EB896A3EF04F00150026E036A0350BA
:10099200000AD8B4CFEF04F0BFEF04F00250000A0F
:1009A200D8B495EF04F0010AD8B49FEF04F0030A1B
:1009B200D8B4A9EF04F0010AD8B4AFEF04F0070AE3
:1009C200D8B4B9EF04F0BFEF04F0AC98AC94B89E81
:1009D200B886010EB06E030EAF6EEEEF05F0AC9866
:1009E200AC84B89EB886020EB06E080EAF6EEEEF03
:1009F20005F0AC98AC84B89EB896000EB06E400E6E
:100A0200AF6EEEEF05F0AC98AC84B89EB886000EDF
:100A1200B06E560EAF6EEEEF05F0AC98AC84B89E99
:100A2200B886000EB06E2A0EAF6EEEEF05F0AC98EF
:100A3200AC84B89EB896A3EF04F00150026E036A2C
:100A42000350000AD8B428EF05F018EF05F0025061
:100A5200000AD8B4E6EF04F0010AD8B4F0EF04F0CB
:100A6200030AD8B4FAEF04F0010AD8B404EF05F08F
:100A7200070AD8B40EEF05F018EF05F0AC98AC9465
:100A8200B89EB886040EB06E100EAF6EEEEF05F093
:100A9200AC98AC84B89EB88643EF05F0AC98AC84B1
:100AA200B89EB886F4EF04F0AC98AC84B89EB886D1
:100AB200000EB06EAC0EAF6EEEEF05F0AC98AC84EB
:100AC200B89EB88612EF05F0AC98AC84B89EB88692
:100AD20008EF05F00150026E036A0350000AD8B411
:100AE20075EF05F065EF05F00250000AD8B43FEF4C
:100AF20005F0010AD8B449EF05F0030AD8B44FEF64
:100B020005F0010AD8B455EF05F0070AD8B45FEF33
:100B120005F065EF05F0AC98AC94B89EB89644EF3A
:100B220004F0AC98AC84B89EB89644EF04F0AC984C
:100B3200AC84B89EB89654EF04F0AC98AC84B89EDE
:100B4200B8865EEF04F0AC98AC84B89EB88668EFC5
:100B520004F0AC98AC84B89EB89644EF04F001500F
:100B6200026E036A0350000AD8B4BAEF05F0AAEF86
:100B720005F00250000AD8B48CEF05F0010AD8B48F
:100B820092EF05F0030AD8B498EF05F0010AD8B441
:100B92009EEF05F0070AD8B4A4EF05F0AAEF05F01E
:100BA2000450026E036A0350000AD8B4DBEF05F06A
:100BB200B0EF05F00250000AD8B474EF04F0010A55
:100BC200D8B4C5EF04F0030AD8B41EEF05F0010A49
:100BD200D8B46BEF05F0B0EF05F0948E949CAC9C0A
:100BE200AC8AAC98AC96AC94AC82AB8EAB9CAB8826
:100BF200AB96AB94AB92B89EB8860A0EAF6E12005B
:100C0200000E816E000E8A6E9368000E826E000ED8
:100C12008B6E948E000E836E000E8C6E000E956E9F
:100C2200010E016E020E31EC04F0370E0A6E080E50
:100C32000B6E010E0C6E080E0D6E0AC002F00BC098
:100C420003F048EC06F00CC002F00DC003F048ECD3
:100C520006F081CF0EF082BE31EF06F033EF06F0E0
:100C620036EF06F00E5073EC06F082EC06F00D0E35
:100C7200096EAF0E086EB60EE82EFED7082EFCD710
:100C8200092EFAD700D02AEF06F000EF00F0000E8E
:100C9200076E000E066E5EEF06F006500224046E2A
:100CA20007500320056E04C0F6FF05C0F7FF0800D9
:100CB200F55073EC06F0064A072A06500224046E29
:100CC20007500320056E04C0F6FF05C0F7FF0800B9
:100CD200F5500009D8A470EF06F072EF06F04EEF5F
:100CE20006F01200016EAC98AB8EAC8AAC8AACA254
:100CF2007DEF06F07FEF06F078EF06F001C0ADFF62
:100D02001200AC98AB8EAB889EAA8AEF06F08CEFED
:100D120006F085EF06F0AECF01F001501200000E92
:080D2200F86E000101EF06F07C
:020000040020DA
:08000000FFFFFFFFFFFFFFFF00
:020000040030CA
:0E000000000C1F1EFF8181FF0FC00FE00F409C
:00000001FF
