:040000005BEF3FF083
:107EB600000EF86E000160EF3FF0000E806E000EBF
:107EC600896E0F0EC16E070EB46E3F0E9212000E33
:107ED600816E000E8A6E9368000E826E000E8B6EA7
:107EE6006D966F86F00E9412000E836E000E8C6EE9
:107EF600000E956E82380F0B036EBBEF3FF080CFFE
:107F06008CFFF4EF3FF081CF8CFFF4EF3FF0815010
:107F160080248C6EF4EF3FF08050815C8C6EF4EF21
:107F26003FF0815080148C6EF4EF3FF0815080104A
:107F36008C6EF4EF3FF0815080188C6EF4EF3FF0BA
:107F46008150FF0A8C6EF4EF3FF08050FF0A8C6E72
:107F5600F4EF3FF08138F00B8C6EF4EF3FF0803891
:107F6600F00B8C6EF4EF3FF0F00E8C6EF4EF3FF0FA
:107F76000350016E026A0250000AD8B4C5EF3FF002
:107F8600B7EF3FF00150000AD8B482EF3FF0010A84
:107F9600D8B486EF3FF0030AD8B48AEF3FF0010A5F
:107FA600D8B48FEF3FF0070AD8B494EF3FF0010A38
:107FB600D8B499EF3FF0030AD8B49EEF3FF0010A18
:107FC600D8B4A3EF3FF00F0AD8B4A8EF3FF0010AE8
:107FD600D8B4ADEF3FF0030AD8B4B2EF3FF0B7EF35
:107FE6003FF0410E016EEE0EE82EFED7012EFCD7B5
:0A7FF60000D07DEF3FF000EF00F037
:020000040020DA
:08000000FFFFFFFFFFFFFFFF00
:020000040030CA
:0E000000000C1F1EFF8181FF0FC00FE00F409C
:00000001FF
