:040000005EEF3FF080
:107EBC00000EF86E000163EF3FF0000E836E000EB3
:107ECC008C6E000E956E010E016E010E026E020E8E
:107EDC00A8EC3FF0000E81EC3FF0C4CF8CFF410EBC
:107EEC00066EEE0EE82EFED7062EFCD700D070EFF5
:107EFC003FF000EF00F0046E0D0E046488EF3FF0CD
:107F0C008AEF3FF090EF3FF0000E026E000E016E14
:107F1C00A7EF3FF004C003F003460346C25003181A
:107F2C00C30B0318C26EC280C282C2B2A0EF3FF074
:107F3C00A2EF3FF09BEF3FF0C290C3CF01F0C4CF54
:107F4C0002F01200056E01500F08036EC1500318A9
:107F5C00F00B0318C16ECF0EC11602B002D0C09E3A
:107F6C0001D0C08EE2EF3FF0C050F80B0409C06E98
:107F7C00C050C70B1009C06EFFEF3FF0C050F80B9C
:107F8C000109C06EC050C70B1009C06EFFEF3FF067
:107F9C00C050F80B0509C06EC050C70B1009C06E5D
:107FAC00FFEF3FF0C050F80B0209C06EC050C70B7A
:107FBC001009C06EFFEF3FF00550036E046A0450C9
:107FCC00000AD8B4ECEF3FF0FFEF3FF00350000A8B
:107FDC00D8B4BAEF3FF0010AD8B4C4EF3FF0030AAB
:107FEC00D8B4CEEF3FF0010AD8B4D8EF3FF0FFEF92
:047FFC003FF0120040
:020000040020DA
:08000000FFFFFFFFFFFFFFFF00
:020000040030CA
:0E000000000C1F1EFF8181FF0FC00FE00F409C
:00000001FF
